:100000000C9460050C9488050C9488050C94880564
:100010000C9488050C9488050C9488050C9488052C
:100020000C9488050C9488050C9488050C9488051C
:100030000C9488050C9488050C9488050C9488050C
:100040000C9480230C9488050C94741B0C944E1B08
:100050000C9488050C9488050C9488050C948805EC
:100060000C94A61B0C948805F926FF26102716274A
:100070005027F6264D2A5353443133303620616CD5
:100080006C6F636174696F6E206661696C65640092
:100090002200FF21000000000023002600290000AC
:1000A0000000080002010000030407000000000037
:1000B00000000000000000003E5B4F5B3E3E6B4FC7
:1000C0006B3E1C3E7C3E1C183C7E3C181C577D57EA
:1000D0001C1C5E7F5E1C00183C1800FFE7C3E7FF96
:1000E0000018241800FFE7DBE7FF30483A060E2629
:1000F00029792926407F050507407F05253F5A3C81
:10010000E73C5A7F3E1C1C08081C1C3E7F14227FC3
:1001100022145F5F005F5F06097F017F006689959B
:100120006A606060606094A2FFA29408047E040884
:1001300010207E201008082A1C08081C2A08081E07
:10014000101010100C1E0C1E0C30383E3830060EED
:100150003E0E06000000000000005F0000000700E7
:100160000700147F147F14242A7F2A1223130864A3
:100170006236495620500008070300001C22410047
:100180000041221C002A1C7F1C2A08083E08080087
:100190008070300008080808080000606000201027
:1001A0000804023E5149453E00427F4000724949E1
:1001B00049462141494D331814127F1027454545C2
:1001C000393C4A49493141211109073649494936E3
:1001D000464949291E000014000000403400000078
:1001E00008142241141414141400412214080201AA
:1001F0005909063E415D594E7C1211127C7F4949D6
:1002000049363E414141227F4141413E7F49494972
:10021000417F090909013E414151737F0808087F68
:1002200000417F41002040413F017F081422417F6F
:10023000404040407F021C027F7F0408107F3E4107
:1002400041413E7F090909063E4151215E7F09195E
:100250002946264949493203017F01033F40404076
:100260003F1F2040201F3F4038403F631408146365
:1002700003047804036159494D43007F4141410221
:1002800004081020004141417F0402010204404063
:10029000404040000307080020545478407F284421
:1002A00044383844444428384444287F385454540B
:1002B0001800087E090218A4A49C787F080404781A
:1002C00000447D40002040403D007F102844000055
:1002D000417F40007C047804787C0804047838442A
:1002E000444438FC1824241818242418FC7C0804DE
:1002F0000408485454542404043F44243C404020FF
:100300007C1C2040201C3C4030403C4428102844A9
:100310004C9090907C4464544C440008364100005A
:1003200000770000004136080002010204023C266A
:1003300023263C1EA1A161123A4040207A38545431
:1003400055592155557941225454784221555478B4
:100350004020545579400C1E52721239555555594A
:10036000395454545939555454580000457C41006F
:1003700002457D420001457C407D1211127DF0282E
:100380002528F07C545545002054547C547C0A099F
:100390007F4932494949323A4444443A324A48480A
:1003A000303A4141217A3A42402078009DA0A07D18
:1003B0003D4242423D3D4040403D3C24FF242448D4
:1003C0007E4943662B2FFC2F2BFF0929F620C0887E
:1003D0007E090320545479410000447D413048484F
:1003E0004A32384040227A007A0A0A727D0D193169
:1003F0007D2629292F28262929292630484D4020C5
:10040000380808080808080808382F10C8ACBA2FA0
:10041000102834FA00007B000008142A1422221449
:100420002A14085500550055AA55AA55AAFF55FF8C
:1004300055FF000000FF00101010FF00141414FFFF
:10044000001010FF00FF1010F010F0141414FC0046
:100450001414F700FF0000FF00FF1414F404FC1450
:100460001417101F10101F101F1414141F00101049
:1004700010F0000000001F101010101F10101010BE
:10048000F010000000FF101010101010101010FFDE
:1004900010000000FF140000FF00FF00001F1017F5
:1004A0000000FC04F414141710171414F404F400DE
:1004B00000FF00F714141414141414F700F71414A4
:1004C00014171410101F101F141414F4141010F02B
:1004D00010F000001F101F0000001F14000000FC9F
:1004E000140000F010F01010FF10FF141414FF148B
:1004F0001010101F00000000F010FFFFFFFFFFF0C2
:10050000F0F0F0F0FFFFFF0000000000FFFF0F0F12
:100510000F0F0F3844443844FC4A4A4A347E0202E2
:100520000606027E027E0263554941633844443C1C
:1005300004407E201E2006027E020299A5E7A599AE
:100540001C2A492A1C4C7201724C304A4D4D3030E5
:1005500048784830BC625A463D3E494949007E01D0
:1005600001017E2A2A2A2A2A44445F444440514AEF
:10057000444040444A51400000FF0103E080FF0036
:100580000008086B6B083612362436060F090F0672
:10059000000018180000001010003040FF0101009A
:1005A0001F01011E00191D1712003C3C3C3C0000BD
:1005B000000000000103070F1F3F7F0080C0E0F034
:1005C000F8FCFE00000000240027002A00DB40A405
:1005D000A62EAFDA0281DA1281DA02818F2000A121
:1005E000C8D300408DAED580A80102040810204079
:1005F00080010204081020010204081020000000FD
:1006000000250028002B0004040404040404040250
:10061000020202020203030303030300006000005E
:10062000000000000000000000000000E0000000EA
:100630000000000000000000000001E000000000D9
:1006400000000000000000000001F00000000000B9
:10065000000000000000000003F0000000000000A7
:100660000000000000000007F00000000000000093
:1006700000000000000007F800000000000000007B
:1006800000000000000FF800000003C0007E000022
:1006900001E0007F0FF800000003C000FE00000131
:1006A000E000FFEFF800000003C000FE000001E0E2
:1006B00000FFFFF800000003C000F00000000F0082
:1006C0007FFE7FC0000003C000F00000000F003F6D
:1006D000FE7FF83FF1FBCFFCFEF3BC3DEFE01FFED9
:1006E0007FFF7FFBFFDFFEFEFFBC3DEFE01FC6FF8D
:1006F000FF7FFBFFDFFEFEFFBC3DEFE00FE3C7FE29
:10070000787BC3DE1EF0FFBC3DEF0007FF87FC785F
:100710007BC3DE1EF0F83C3DEF0001FFFFF0007BE5
:10072000C3C01EF0F03C3DEF0001F37FE03FFBC390
:10073000CFFEF0F03C3DEF0003E33F807FFBC3DFE3
:10074000FEF0F03C3DEF0007E73C00787BC3DE1E87
:10075000F0F03C3DEF0007FFBE00787BC3DE1EF0EB
:10076000F03C3DEF0007FFFE00787BC3DE1EF0F09B
:100770003C3DEF000FFFFE007FFBFFDFFEF0F03F90
:10078000FDEFE00FFFFF007FFBFFDFFEF0F03FFD1E
:10079000EFE00FF9FF003E79F9CF9EF0F01F3DE743
:1007A000E01FF1FF0000000000000000000000005A
:1007B0001F80FF007FFFFFFFFFFFFFFFFFFFE01C29
:1007C000007F007FFFFFFFFEB46D888D18E0000002
:1007D0001F007FFFFFFFFE95AD7DB577E000000FA6
:1007E000007FFFFFFFFEA5AD9D8D19E00000060014
:1007F0007FFFFFFFFEB5ADEDB57EE000000000001D
:1008000001800000000000000000000380000000E4
:1008100000000000000007C0000000000000000011
:100820000007C00000000000000000000FC0000032
:10083000000000000000001FE000000000000000B9
:1008400000001FE00000000000000000003FE0008A
:1008500000000000000000003FF000000000000069
:100860000000007FF0000000000000001FF87FF093
:10087000000000000000003FFE7FF00000000000CC
:1008800000003FFF7FF0000000000000001FFFFBA2
:10089000E0000000000000000FFFF9FFC0000000B2
:1008A0000000000FFFF9FFF800000000000007FF44
:1008B000F1FFFF00000000000003FC73FFFF800059
:1008C0000000000001FE3FFFFF800000000000006C
:1008D000FF1E0FFF000000000000007FFE1FFC0055
:1008E0000000000000003FFFFFF8000000000000D3
:1008F000000FDFFFE0000000000000001F19FFC034
:10090000000000000000003F3CFF0000000000006D
:1009100000007E7CF800000000000000007FFE7CEC
:100920000000000000000000FFFFFC0000000000CD
:10093000000000FFFFFE0000000000000000FFFFBD
:10094000FE0000000000000001FFEFFE00000000BC
:1009500000000001FFCFFE0000000000000003FFC8
:1009600007FE0000000000000003FC07FE0000007E
:100970000000000003F003FE000000000000000182
:100980008000FE000000000000000000007E00006B
:1009900000000000000000003E0000000000000019
:1009A0000000000C000000000000078000FC0000B8
:1009B00003C0000000078001FC000003C00000002D
:1009C000078001FC000003C0000000078001E00078
:1009D00000001E000000078001E00000001E007FF4
:1009E000E3F79FF9FDE7787BDFC0FFF7FFBFFDFD71
:1009F000FF787BDFC0FFF7FFBFFDFDFF787BDFC027
:100A0000F0F787BC3DE1FF787BDE00F0F787BC3D67
:100A1000E1F0787BDE0000F787803DE1E0787BDE67
:100A2000007FF7879FFDE1E0787BDE00FFF787BF5F
:100A3000FDE1E0787BDE00F0F787BC3DE1E0787B0C
:100A4000DE00F0F787BC3DE1E0787BDE00F0F78761
:100A5000BC3DE1E0787BDE00FFF7FFBFFDE1E07F1A
:100A6000FBDFC0FFF7FFBFFDE1E07FFBDFC07CF3F2
:100A7000F39F3DE1E03E7BCFC0000000000000009E
:100A800000000000FFFFFFFFFFFFFFFFFFFFC0FFB1
:100A9000FFFFFFFD68DB111A31C0FFFFFFFFFD2BD9
:100AA0005AFB6AEFC0FFFFFFFFFD4B5B3B1A33C0F1
:100AB000FFFFFFFFFD6B5BDB6AFDC000F22BCA236B
:100AC00011241FBECFEFD8E0DEBFCDBF24E0A2EFE0
:100AD000B2E001C01D92A33EB207E1F712E0A0E030
:100AE000B1E0E8ECF2E602C005900D92A23FB1073A
:100AF000D9F715E0CFE5D5E004C02197FE010E94AB
:100B00001D2FCE35D107C9F70E94E1230C94573130
:100B10000C940000E0918D0480918C04E81730F46F
:100B2000F0E0E459FB4F808190E008958FEF9FEF54
:100B3000089590918D0480918C04981750F4E92FBA
:100B4000F0E0E459FB4F208130E09F5F90938D04EB
:100B500002C02FEF3FEFC901089580918C0490E00F
:100B600020918D04821B91090895FC0177FDB9C085
:100B700080859185681779070CF0B3C057FDB1C027
:100B800082859385481759070CF00895858982302E
:100B900079F484819581DC01A61BB70BBD016150FE
:100BA000710986819781DC01A41BB50BAD010EC0D4
:100BB000833009F084C064277527CA0186279727E8
:100BC0006827792746815781481B590B41505109A5
:100BD0002130310531F048F12230310509F44AC0A5
:100BE0000895CA0157FD07969C01A3E03595279506
:100BF000AA95E1F7A481B5812A9FC0012B9F900D92
:100C00003A9F900D1124680F791F068CF78DE02D07
:100C1000E60FF71F4770552781E090E001C0880F6D
:100C20004A95EAF79081892B48C0CA0157FD07967B
:100C30009C0193E0359527959A95E1F7A481B581BC
:100C40002A9FC0012B9F900D3A9F900D1124680F91
:100C5000791F068CF78DE02DE60FF71F477055279B
:100C600081E090E001C0880F4A95EAF78095908175
:100C7000892323C0CA0157FD07969C0183E035955F
:100C800027958A95E1F7A481B5812A9FC0012B9F02
:100C9000900D3A9F900D1124680F791F068CF78DE7
:100CA000E02DE60FF71F4770552781E090E001C067
:100CB000880F4A95EAF790818927808308958130CB
:100CC00009F086CF6427752746275727642775279D
:100CD00084819581DC01A61BB70BBD0161507109B0
:100CE00077CF0895DC011E968D919C911F97DC01B2
:100CF000ED91FC910680F781E02D0994EF92FF922F
:100D00000F931F93CF93DF937C01EB018B01040FB3
:100D1000151F80E090E0C017D10751F06991D7010D
:100D2000ED91FC910190F081E02DC7010995F3CF81
:100D3000DF91CF911F910F91FF90EF900895CF9386
:100D4000DF93EC018E859F85DC01ED91FC91019094
:100D5000F081E02D603C61F46BED09958E859F85F7
:100D6000DC01ED91FC910190F081E02D6CED0CC067
:100D70006B3D51F409958E859F85DC01ED91FC91C9
:100D80000190F081E02D6DEDDF91CF910994CF932B
:100D9000DF93EC018E859F85DC01ED91FC9104844D
:100DA000F585E02D09952C853D852330310521F40D
:100DB0008C3D21F08D3D29F0992705C080EC90E015
:100DC00002C08BED90E0DF91CF9108950F931F93B8
:100DD000CF93DF93EC0103E010E08E859F85DC016B
:100DE000ED91FC910284F385E02D09954C855D859C
:100DF0004115510549F48B3D19F41D870C87EDCF42
:100E0000803C59F0992711C04330510531F41D86BB
:100E10001C868C3D29F08D3D31F08FEF9FEF05C092
:100E200080EC90E002C08BED90E0DF91CF911F91BC
:100E30000F910895EF92FF920F931F93CF93DF933B
:100E4000EC0101E010E083E0E82EF12C8E859F8517
:100E5000DC01ED91FC910084F185E02D0995892B51
:100E600009F447C08C859D850097F9F48E859F8590
:100E7000DC01ED91FC910484F585E02D09958B3D15
:100E800019F4FD86EC8607C0803C19F081E090E003
:100E900032C01D870C878E859F85DC01ED91FC910A
:100EA0000284F385E02D0995D1CF8330910571F34C
:100EB00081309105D1F48E859F85DC01ED91FC9107
:100EC0000484F585E02D0995803C910581F482E04C
:100ED00090E09D878C878E859F85DC01ED91FC914C
:100EE0000284F385E02D099504C0029711F41D8654
:100EF0001C8680E090E0DF91CF911F910F91FF90D1
:100F0000EF90089580E090E00895CF93DF93FC0187
:100F10008181813221F0319681E090E003C03296E8
:100F200080E090E0AC0121E0422720812D3591F056
:100F3000222381F0A181EB013881AD3239F43217DF
:100F40001CF0228123173CF43396EFCF231719F0BE
:100F50003196EBCFCA01DF91CF91089583E090E005
:100F60009093F4028093F302089582E090E09093CE
:100F7000F4028093F3020895CF92DF92EF92FF92F2
:100F80000F931F93CF93DF937C01CB018A012091B4
:100F90004503222389F0EB016B01C40ED51ECC154D
:100FA000DD0569F06991D701ED91FC910190F08127
:100FB000E02DC7010995F3CF642F0E94D41CC8010E
:100FC000DF91CF911F910F91FF90EF90DF90CF9025
:100FD0000895CF93DF931F92CDB7DEB76983209139
:100FE00045032223D1F020916803203240F021E014
:100FF00030E0FC013383228380E090E015C08091D3
:101000004603E82FF0E0E95BFC4F998190838F5F06
:10101000809346038093680305C061E0CE0101968A
:101020000E94D41C81E090E00F90DF91CF91089551
:101030000F931F93CF93DF93DC015596EC91559757
:10104000E23071F0E330E9F0E13079F5FB0114961C
:101050000D90BC91A02DA41BB50BA21BB30B18C007
:10106000EC01EC81FD81E61BF70BBF0161507109BA
:10107000EE81FF81DF01A41BB50BAD01421B530BB9
:1010800014C0DA01EC01EE81FF81E61BF70B31970A
:10109000F7FD0DC0EC014E815F81E417F5073CF4CC
:1010A000AF01BD010E94251D02C00E948C1DDF9171
:1010B000CF911F910F9108950F931F93DC015596C7
:1010C000EC915597E23061F0E33009F1E13081F5C0
:1010D0001496ED91FC911597E41BF50B319723C005
:1010E000DC011496ED91FC911597DF01A61BB70B5F
:1010F000BD01DC011696ED91FC911797DF01A41B51
:10110000B50BAD0141505109621B730B11C0FA01BF
:10111000DC0116964D915C911797DA01A61BB70B6F
:10112000BD01621B730BAB01BF010E948C1D0CC083
:1011300057FD0AC0DC011696ED91FC9117974E17EA
:101140005F0714F40E94251D1F910F910895EF92DF
:10115000FF920F931F93CF93DF937B010196FC01C6
:1011600020812D37F1F02223E1F02F32D1F0EC0174
:10117000FE0121918F012D3751F4C81BD90BAE010F
:10118000B7010E942F31892B51F0C801E8CF2223EB
:10119000A1F32F3291F32C3281F3E801E9CFCE0194
:1011A00002C080E090E0DF91CF911F910F91FF90FE
:1011B000EF900895FC0120812D3559F02CF42F3348
:1011C00001F12B3561F015C02B3789F02D3749F02F
:1011D00010C0FC0120812B3511F00197FACF0C943F
:1011E0008507FC0120812B3711F00197FACF0C9471
:1011F000A70881E090E0FB013081321721F080E008
:10120000089581E090E00895EF92FF921F93CF93AD
:10121000DF93EC017B01B701F70181917F01188118
:101220008F3219F41F3221F42EC081110FC0FACF72
:10123000112349F11A3221F589818F3221F131E0F0
:1012400020E0811130E0832F922F1FC0CE011A328F
:1012500031F401960E940409892BE9F214C00E941E
:10126000DA08009791F01F7D1B3541F49E01E901DA
:101270002F5F3F4F88818F7D8D35C9F72196CBCF6A
:1012800080E090E002C081E090E0DF91CF911F917B
:10129000FF90EF90089510928D0410928C0410929C
:1012A0004603109268031092440381E08093430345
:1012B00010921E0361E082E10E94842061E083E1DC
:1012C0000E948420E9EBF0E080818E7F8083808122
:1012D0008D7F808388E48093B80085E48093BC0090
:1012E00089EA99E190938F0480938E048AEA99E1C8
:1012F0009093910480939004089508958EBD00000A
:101300000DB407FEFDCF8EB508951F93CF93DF93E5
:10131000FC01848D958D009729F1162FEF0120A1F6
:1013200031E03093450320936703109246031092F7
:101330006803DC01ED91FC910190F081E02D60E00B
:1013400009958C8D9D8DDC01ED91FC910190F081D2
:10135000E02D612F09958C8D9D8DDF91CF911F918F
:101360000C946310A4A5B5A59C9182A980958923AE
:101370008C93828D938D892B31F0862FDF91CF91C5
:101380001F910C947E0928E030E080E8A0A5B1A56B
:1013900090A9462F482319F04C91942B03C04C91EF
:1013A000909594239C93A2A5B3A54C9191A9942BBD
:1013B0009C93A2A5B3A54C9191A9909594239C933D
:1013C00086952150310911F7DF91CF911F91089532
:1013D0008CBD9DBD08951F93CF93DF93EC01162F15
:1013E0008C8D9D8D892BB1F02EA93FA948AD59ADAB
:1013F00060E074E284EF90E00E94FB2EDA01C90104
:101400004097A109B109B695A795979587958093BF
:10141000B8000FC08A8D9B8D892B21F08CA99DA9C6
:101420000E94E809EEA5FFA590818BA980958923EC
:101430008083111102C066EA01C067EACE010E94F2
:1014400085098C8D9D8D892BB1F02AAD3BAD4CADBE
:101450005DAD60E074E284EF90E00E94FB2EDA0163
:10146000C9014097A109B109B695A79597958795A8
:101470008093B80006C0EEA5FFA590818BA9892BAB
:101480008083DF91CF911F910895CF93DF9300D098
:1014900000D0CDB7DEB7FC018381898382818A8346
:1014A00081818B8380818C8369817A818B819C810E
:1014B0000F900F900F900F90DF91CF910895CF93E1
:1014C000DF9300D000D0CDB7DEB7FC0183818983E4
:1014D00082818A8381818B8380818C8369817A81F7
:1014E0008B819C810F900F900F900F90DF91CF9187
:1014F0000895CF93DF93EC0160E170E08A859B85CE
:101500000E9444309B878A87892B29F080E190E0F4
:101510009F878E8706C083E090E09F838E831B8623
:101520001A861D861C86DF91CF910895EF92FF9257
:101530000F931F93CF93DF93EC017B0188819981F7
:101540000E94BB2FF70101900020E9F7CF018E190F
:101550009F090E94232F8C01009739F483E090E0CB
:101560009F838E831982188205C0B7010E9428319B
:1015700019830883CE01DF91CF911F910F91FF90C6
:10158000EF9008952F923F924F925F926F927F92C9
:101590008F929F92AF92BF92CF92DF92EF92FF9283
:1015A0000F931F93CF93DF93CDB7DEB727970FB677
:1015B000F894DEBF0FBECDBF9B838A837B015D8322
:1015C0004C831901FC01A080B180A20EB31EC5019D
:1015D0000E941F31892B19F0BF82AE823AC0F501FB
:1015E00001900020E9F73197EA19FB09FF83EE83A8
:1015F00022C1112309F403C11A3209F0B8C037011E
:10160000F7016F0181918F3261F5EE81FF8180E0FA
:1016100090E08F0121912F3239F501501109F1E04D
:10162000CF1AD1088130910529F5F801F080FAE24E
:10163000FF1223C0EE81FF81FF83EE8381918F3201
:1016400009F08FC07301F30181913F018F3209F0DE
:101650008BC0F7012081EE81FF8110812111C9CF5C
:10166000CEC08111CECFD1CF2223B9F22A3289F652
:101670000196CFCF029751F16BC0B601C8010E940D
:10168000DA08892B09F4E7C08F2D8F7D8D3541F461
:10169000F80180818F7D8B3519F001501109F8CF49
:1016A00001501109F1E0CF1AD108BFCFB601C8012E
:1016B0000E94DA08892B09F4CEC0892D8F7D8D35E3
:1016C00059F001501109F1E0CF1AD108F8019080CA
:1016D000FAE29F12EBCF08C0F80180818F7D8B3535
:1016E00081F301501109F8CF2FEFC21AD20AEC147E
:1016F000FD0408F0B0C0480131E0831A910881E090
:10170000C81AD1082601F401F081F983FA32D1F028
:10171000B201C4010E94DA08892BA1F089818F7D72
:101720008D3549F4F40180818F7D8B3521F091E076
:10173000891A9108F7CFF1E08F1A910821E0421A37
:101740005108E1CF2E813F812815390581F672CFEE
:10175000B7018E819F810E940409892B09F06ACF0D
:101760007AC0811169CF6ECF81116CCF72CF2A32CE
:1017700091F4EE81FF81FF83EE8381918F3211F02E
:101780008111F9CFF7017F0181918F3209F461CF87
:101790008111F9CF5ECFB7018E819F810E94DA0857
:1017A000009709F458C01B3581F48E819F819F8377
:1017B0008E830196EE81FF8120812D35C1F79F83B5
:1017C0008E83FFEFEF1AFF0A44CF2E813F811B3734
:1017D00071F43F832E832F5F3F4FEE81FF81408165
:1017E0004D37B9F73F832E83E80EF91E32CF2F5FB6
:1017F0003F4F3F832E833FEFE31AF30A2ACF8E81B8
:101800009F818A199B099F838E8381E090E0222328
:1018100011F080E090E0111103C08260039759F04D
:10182000EE81FF811E161F06B4F4EA0DFB1D8081B8
:101830008F3289F405C02E813F81121613065CF4A5
:101840006E817F81620D731D8A819B81EC81FD8198
:10185000099581E001C080E027960FB6F894DEBFBD
:101860000FBECDBFDF91CF911F910F91FF90EF90F1
:10187000DF90CF90BF90AF909F908F907F906F90B0
:101880005F904F903F902F900895FC018481958147
:101890006817790754F4660F771F0280F381E02DF3
:1018A000E60FF71F80819181089584E090E097838F
:1018B000868380E090E0089560E070E00E94450C2F
:1018C000FC01248135812636310529F486819781F2
:1018D000A085B18503C080E090E0DC018093060321
:1018E00090930703A0930803B0930903089560E061
:1018F00070E00E94450CFC012481358126363105BB
:1019000029F486819781A085B18503C080E090E0AD
:10191000DC018093FB029093FC02A093FD02B09344
:10192000FE0208950F931F93CF93DF93EC018B0179
:10193000198218821D821C821F821E821B821A82BB
:101940001B861A861D861C861F861E860E94790AA3
:1019500019861886B801CE01DF91CF911F910F91A2
:101960000C94960AFC01828193811816190664F47E
:10197000848195818337910519F08236910521F490
:10198000868197810C94BB2F08954F925F926F923E
:101990007F92AF92BF92CF92DF92EF92FF920F931E
:1019A0001F93CF93DF9300D000D0CDB7DEB78C016B
:1019B0005B016A01FC011182108282E690E095834E
:1019C00084837A01F4E0EF0EF11CF801F382E282E5
:1019D000CA01550FAA0BBB0B89839A83AB83BC83C7
:1019E000CE0101960E945F0A2B013C0169837A8334
:1019F0008B839C831E141F04D4F4C7010E94232FE1
:101A00007C01009731F483E090E0F80191838083BA
:101A100011C0FC014192519261927192CF01A601D5
:101A2000B5010E940F31F801F782E68203C0F80188
:101A3000178216820F900F900F900F90DF91CF9129
:101A40001F910F91FF90EF90DF90CF90BF90AF90DC
:101A50007F906F905F904F900895EF92FF920F9359
:101A60001F93CF93DF93EC017B011982188283E7E8
:101A700090E09D838C83FB0101900020E9F7CF016A
:101A8000861B970B9B838A830E94232F8C010097D0
:101A900029F483E090E09983888305C0B7010E9410
:101AA00028311F830E83DF91CF911F910F91FF90FB
:101AB000EF900895EF92FF920F931F93CF93DF93D0
:101AC000EC017B018EE090E00E94232F8C01B70196
:101AD0000E942D0DF80180819181039729F483E004
:101AE00090E09F838E831CC06C817D816F5F7F4FF0
:101AF000660F771F8A819B810E944430009779F39B
:101B00009B838A832C813D81A901440F551FFC01D1
:101B1000E40FF51F118300832F5F3F4F3D832C831C
:101B2000CE01DF91CF911F910F91FF90EF9008951B
:101B3000CF92DF92EF92FF920F931F93CF93DF9399
:101B4000EC016A017B018EE090E00E94232F8C0162
:101B5000FC011182108286E690E09583848384E004
:101B600090E093838283C682D782E086F1866C817F
:101B70007D816F5F7F4F660F771F8A819B810E94F7
:101B80004430009729F483E090E09F838E8310C057
:101B90009B838A832C813D81A901440F551FFC0141
:101BA000E40FF51F118300832F5F3F4F3D832C838C
:101BB000CE01DF91CF911F910F91FF90EF90DF90B9
:101BC000CF900895CF92DF92EF92FF920F931F93E1
:101BD000CF93DF93EC016A017B018EE090E00E94DD
:101BE000232F8C01FC011182108289E690E09583FD
:101BF000848384E090E093838283C682D782E086E8
:101C0000F1866C817D816F5F7F4F660F771F8A81C0
:101C10009B810E944430009729F483E090E09F83E9
:101C20008E8310C09B838A832C813D81A901440F40
:101C3000551FFC01E40FF51F118300832F5F3F4FF9
:101C40003D832C83CE01DF91CF911F910F91FF90A7
:101C5000EF90DF90CF9008950F931F93CF93DF9372
:101C6000EC0188810E945B208C0189810E945B20AD
:101C7000AC012A813B810217130769F08C819D8199
:101C80002817390711F081E001C08FEF9A85913054
:101C900019F4819501C080E01B830A835D834C8326
:101CA000DF91CF911F910F910895CF93DF93CDB71F
:101CB000DEB7E0970FB6F894DEBF0FBECDBF60E78A
:101CC00071E0CE0101960E94920C60E871E0CE01B5
:101CD00001960E945A0D61E971E0CE0101960E94C1
:101CE0005A0D0E941A10CE0101960E94C3140E9440
:101CF0001A106FE971E0CE0141960E94920C41E00A
:101D000050E060E070E0CE0141960E94E20D0E943A
:101D10001A10CE0141960E94C3140E941A1068EB5B
:101D200071E0CE0181960E94920C41E050E060E0AB
:101D300070E0CE0181960E94E20D0E941A10CE0141
:101D400081960E94C3140E941A10CE0181960E94AF
:101D50008914CE0141960E948914CE0101960E94F9
:101D60008914E0960FB6F894DEBF0FBECDBFDF91A9
:101D7000CF9108950F931F93CF93DF93EC018B01C5
:101D80008091F3029091F402019741F00E94550E68
:101D900081E090E09093F4028093F30298014CE587
:101DA0005CE062ED71E0CE010E94C20A81110CC0BC
:101DB000980147E75CE061EE71E0CE01DF91CF91E1
:101DC0001F910F910C94C20ADF91CF911F910F9137
:101DD00008958BE093E00C94F91ACF92DF92EF9282
:101DE000FF920F931F93CF93DF9300D000D000D0CA
:101DF000CDB7DEB78C016A017B018091F30290912F
:101E0000F4028230910539F1039709F446C061EF7D
:101E100071E0CE0101960E94FE1A88E00E945B20CC
:101E2000892B19F46CEF71E002C062E072E0CE0120
:101E300001960E94D81A0130110519F463EB71E084
:101E400005C0012B09F050C06CEC71E0CE01019689
:101E50000E94D81A43C06AE072E0CE0101960E9447
:101E6000FE1A0130110519F468E172E004C0012B7B
:101E7000D9F563E272E0CE0101960E94D81A88E09B
:101E80000E945B20892B51F120E030E040E851E4D2
:101E9000C701B6010E94EE2C1FC06FE272E0CE01B6
:101EA00001960E94FE1A0130110519F468E172E0F2
:101EB00004C0012BC9F463E272E0CE0101960E94D6
:101EC000D81A88E00E945B20892B41F0A701960177
:101ED000C701B6010E94E42D6B017C01B701A60188
:101EE000CE0101960E94C415CE0101960E94F91AF6
:101EF00026960FB6F894DEBF0FBECDBFDF91CF910F
:101F00001F910F91FF90EF90DF90CF900895FF9277
:101F10000F931F93CF93DF93CDB7DEB766970FB6BE
:101F2000F894DEBF0FBECDBFF82E8B016BE572E0DB
:101F3000CE0141960E94FE1A8091F3029091F40224
:101F40008230910529F0039731F069E372E005C012
:101F500063E472E002C060E572E0CE0101960E9487
:101F6000FE1AB801CE0101960E945010BC01CE01AC
:101F700041960E942610CE0101960E94F91A6989A5
:101F80007A89CE0101960E94920CFF2029F041E04F
:101F900050E060E070E003C040E050E0BA01CE01E4
:101FA00001960E94E20D0E941A10CE0101960E9435
:101FB000C3140E941A10CE0101960E948914CE010A
:101FC00041960E94F91A66960FB6F894DEBF0FBECE
:101FD000CDBFDF91CF911F910F91FF900895EF92A8
:101FE000FF920F931F93CF937C01C1E0FC01868188
:101FF0009781892B09F4C0E000E010E0F7018481AB
:102000009581081719077CF4B801C7010E94450C97
:10201000FC0191E020813181232B09F490E0C92B50
:102020000F5F1F4FEBCF8C2FCF911F910F91FF9020
:10203000EF90089580916A0490916B04DC01ED911A
:10204000FC910190F081E02D60EC0994EF92FF92F9
:102050000F931F93CF93DF93EC0186179707C1F07F
:10206000FB01008111810115110539F0E480F58033
:10207000B7010E94831A811104C0CE010E94E71AA1
:1020800007C0FD82EC82B801888199810E942831C5
:10209000CE01DF91CF911F910F91FF90EF900895A6
:1020A000CF93DF93EC01FB01448155816081718105
:1020B0000E94AA1A811103C0CE010E94E71ACE0124
:1020C000DF91CF91089530916803313208F04BC011
:1020D000809144038111FCCF9091670322E020930B
:1020E000440321E0209343032FEF209342031092F7
:1020F000410330934003E7E4F3E0A0E2B3E020E0E3
:10210000321721F041914D932F5FFACF10921F03A8
:1021100020911F03990F922B90931F0390911E0300
:10212000913061F410921E0390911F039093BB00B5
:102130009091BC0093FDF8CF95EC01C095EE909383
:10214000BC00909144039230E1F3909142039F3F91
:1021500079F080914203803241F0809142038033D4
:1021600031F084E005C081E003C082E001C083E07B
:102170001092460310926803109245030895DF926F
:10218000EF92FF920F931F93CF93DF93D82ED92F07
:10219000C62F80919D0390919E03009709F454C02F
:1021A0002091A10331E030934503209367031092FF
:1021B000460310926803DC01ED91FC910190F081DF
:1021C000E02D60E00995ED2CFD2E11E0D1E080912D
:1021D0009D0390919E03CC2371F11032C8F00E94B0
:1021E00063108091A103D0934503809367031092FD
:1021F00046031092680380919D0390919E03DC0139
:10220000ED91FC910190F081E02D60E0099511E0E5
:1022100080919D0390919E03F7016491DC01ED9103
:10222000FC910190F081E02D09951F5FC150BFEF37
:10223000EB1AFB0ACCCFDF91CF911F910F91FF904A
:10224000EF90DF900C946310E091AD03F091AE033A
:1022500090818091B3038095892380830D2D1D2F5C
:10226000CC2309F439C0F801849120919B0330916B
:102270009C03232B31F00E947E09C1500F5F1F4F3A
:10228000EFCF28E030E040E8E091A903F091AA0305
:102290009091B103582F542319F05081952B03C00E
:1022A0005081909595239083E091AB03F091AC031E
:1022B00050819091B203952B9083E091AB03F09104
:1022C000AC0350819091B2039095952390834695ED
:1022D00021503109C9F6D1CFDF91CF911F910F91D4
:1022E000FF90EF90DF900895EF92FF920F931F936E
:1022F000CF93DF9380919D0390919E03892BD1F022
:102300002091B7033091B8034091B9035091BA03BB
:1023100060E074E284EF90E00E94FB2EDA01C901D4
:102320004097A109B109B695A79597958795809390
:10233000B80016C080919B0390919C03892B31F0CB
:102340008091B5039091B6030E94E809E091AF0334
:10235000F091B00390818091B403809589238083AC
:1023600065E080E990E00E94BF10609185036150B4
:1023700081E893E00E9485092091870330918803CA
:10238000C901079697FD079633E0959587953A958D
:10239000E1F72091850330918603829F8001839F1E
:1023A000100D929F100D1124C0919F03D091A00396
:1023B00080919D0390919E030C0F1D1F009709F4BF
:1023C0004CC02091A10331E0309345032093670373
:1023D0001092460310926803DC01ED91FC9101908C
:1023E000F081E02D60E40995FF24F394EE24E3945A
:1023F00080919D0390919E030C171D0759F1BFE139
:10240000BF15D0F40E9463108091A103E0924503B0
:1024100080936703109246031092680380919D0396
:1024200090919E03DC01ED91FC910190F081E02DF3
:1024300060E40995FF24F39480919D0390919E039D
:102440006991DC01ED91FC910190F081E02D0995FD
:10245000F394CECF0E94631041C0E091AD03F091A0
:10246000AE0390818091B303892B80830C171D07E5
:10247000A9F1899120919B0330919C03232B19F0A2
:102480000E947E09F3CF28E030E040E8E091A90304
:10249000F091AA039091B103582F542319F0508161
:1024A000952B03C05081909595239083E091AB03C9
:1024B000F091AC0350819091B203952B9083E09101
:1024C000AB03F091AC0350819091B20390959523AA
:1024D0009083469521503109C9F6C8CF80919D035C
:1024E00090919E03892BD1F02091BB033091BC03C6
:1024F0004091BD035091BE0360E074E284EF90E030
:102500000E94FB2EDA01C9014097A109B109B695D5
:10251000A795979587958093B80017C0E091AF0372
:10252000F091B00390818091B403892B80838091D6
:102530009B0390919C03892B41F0DF91CF911F91D8
:102540000F91FF90EF900C947D09DF91CF911F9137
:102550000F91FF90EF900895CF93DF93BC0181E836
:1025600093E00E94391BEC0169E572E081E893E099
:102570000E94391B8C0F9D1FDF91CF9108952F92E0
:102580003F924F925F926F927F928F929F92AF9203
:10259000BF92CF92DF92EF92FF920F931F93CF9350
:1025A000DF93CDB7DEB7A4970FB6F894DEBF0FBEAA
:1025B000CDBF4B015C01F42E9B01AC010E94F62EB5
:1025C000882319F066EE72E027C024013501E894F3
:1025D00077F82FEF3FEF4FE75FE7C301B2010E94AB
:1025E000F62E81110DC02FEF3FEF4FE75FE7C301DC
:1025F000B2010E94882C18161CF46AEE72E00CC01E
:102600002FEF3FEF4FE75FE4C501B4010E94F12EC9
:1026100018163CF46EEE72E081E893E00E94391BDC
:10262000BCC02FEF3FEF4FE75FECC501B4010E9444
:10263000882C87FDEFCF20E030E0A901C501B4016F
:102640000E94882C87FF0BC06DE281E893E00E9416
:10265000AD193C01B7FAB094B7F8B09402C0612C40
:10266000712C10E060E070E080E09FE3F11641F033
:1026700020E030E040E251E40E94502E1F5FF6CF90
:10268000A50194010E94E42D4B015C010E94C22E21
:102690006AA3C72ED82EE92E19A2262F372F482F2E
:1026A000592F8E010F5D1F4F0BA31CA39AE0292EFB
:1026B000312C412C512CCA01B901A20191010E9477
:1026C000FB2E605DF80162938F01211531054105F4
:1026D000510589F7BF0181E893E00E94391B83010E
:1026E000080F191FFF2009F457C06AA17C2D8D2DFA
:1026F0009E2D0E948D2C9B01AC01C501B4010E944E
:10270000E32D4B015C016EE281E893E00E94AD197C
:10271000080F191F8AE0282E312C412C512C20E063
:1027200030E040E251E4C501B4010E94EE2C4B01BF
:102730005C010E94C22E9B0140E050E019A2CBA098
:10274000DCA0762E3AA3642EE52ECA01B901A201BF
:1027500091010E94FB2E605DF60162936F012115CD
:1027600031054105510589F7BF0181E893E00E94D9
:10277000391B080F191F672D7AA1862D9E2D0E94E7
:102780008D2C9B01AC01C501B4010E94E32D4B01CE
:102790005C01FA94F110C3CFC801A4960FB6F89467
:1027A000DEBF0FBECDBFDF91CF911F910F91FF9084
:1027B000EF90DF90CF90BF90AF909F908F907F90E1
:1027C0006F905F904F903F902F90089520918703D6
:1027D00030918803C901079697FD079623E09595E8
:1027E00087952A95E1F72091850330918603829F92
:1027F000A001839F500D929F500D112460E070E066
:1028000080919F039091A0030C9418313F924F92B6
:102810005F926F927F928F929F92AF92BF92CF9270
:10282000DF92EF92FF920F931F93CF93DF9300D02D
:1028300000D000D0CDB7DEB72C013B014A015901D1
:10284000C901079697FD07969C0193E0359527955A
:102850009A95E1F73C832B83C12CD12CE12CF12CF0
:10286000312CC3018E0D9F1D9A838983E016F106DA
:10287000C4F51E821D822D813E812A153B054CF533
:10288000C90187709927892B11F0330C0EC0ED8197
:10289000FE81F7FD379683E0F595E7958A95E1F798
:1028A000EC0DFD1DE80DF91D349037FE0CC021E044
:1028B00030E049815A816D817E81640D751D81E80A
:1028C00093E00E94E6188D819E8101969E838D8300
:1028D000D2CF9FEFE91AF90A2B813C81C20ED31E99
:1028E000C0CF26960FB6F894DEBF0FBECDBFDF91E6
:1028F000CF911F910F91FF90EF90DF90CF90BF90FD
:10290000AF909F908F907F906F905F904F903F908F
:102910000895EF92FF920F931F93CF93DF93EC01F3
:10292000888199810E94BB2F1F821E8200E010E0E7
:102930008C819D81081719077CF4B801CE010E9493
:10294000450C7C01009729F00E94B20CC7010E943F
:10295000BB2F0F5F1F4FECCF8A819B810E94BB2F43
:102960001B821A821D821C8219861886CE010E9443
:10297000790A8A859B85DF91CF911F910F91FF90F6
:10298000EF900C94BB2FCF92DF92EF92FF920F93B8
:102990001F93CF93DF93CDB7DEB72C970FB6F89484
:1029A000DEBF0FBECDBF7C010E94EF0F8111DCC0E6
:1029B000F70160817181FB0101900020E9F7AF010F
:1029C000461B570B00271127041B150B03701127FB
:1029D0008CE594E00E947E060150110930F060E021
:1029E0008CE594E00E949F06F7CF6CE28CE594E0C2
:1029F0000E949F06C12CD12CF70104811581C016BD
:102A0000D106B4F4B601C7010E94450C8C01C70180
:102A10000E94EF0F811103C0F801648101C060E0E2
:102A20008CE594E00E949F06FFEFCF1ADF0AE4CF07
:102A300000951095037011270115110511F404E09C
:102A400010E00150110918F4C12CD12C0DC060E028
:102A50008CE594E00E949F06F4CF8435910509F03F
:102A60006CC0FFEFCF1ADF0AF70184819581C81689
:102A7000D9060CF079C0B601C7010E94450C8C0143
:102A8000FC01848195818337910519F08236910587
:102A9000D1F4F80142815381668177818CE594E01D
:102AA0000E947E06F801028113811195019511099A
:102AB0000370112701501109A0F260E08CE594E049
:102AC0000E949F06F7CF8436910559F4C8010696F7
:102AD0000E94450A69837A838B839C8348E050E097
:102AE0003BC08437910509F0B8CF88E0F8013696ED
:102AF000DE01119601900D928A95E1F7CE010196C3
:102B00000E945F0A69877A878B879C8744E050E040
:102B1000BE01675F7F4F8CE594E00E947E06CE0188
:102B200005960E945F0A69877A878B879C8744E0B5
:102B300050E0BE01675F7F4F12C08634910509F4F3
:102B400090CFF8018185898380858A8387818B83F3
:102B500086818C8342815381BE016F5F7F4F8CE5FC
:102B600094E00E947E067DCFC7012C960FB6F894A4
:102B7000DEBF0FBECDBFDF91CF911F910F91FF90B0
:102B8000EF90DF90CF900895CF92DF92EF92FF9277
:102B9000CF93DF93CDB7DEB760970FB6F894DEBF63
:102BA0000FBECDBF6A017B01FC0160817181CE0146
:102BB00001960E94920CB701A601CE0101960E94D7
:102BC000980D0E941A10CE0101960E94C3140E9413
:102BD0001A10CE0101960E94891460960FB6F894DF
:102BE000DEBF0FBECDBFDF91CF91FF90EF90DF90A2
:102BF000CF9008950895CF92DF92EF92FF920F93B6
:102C00001F93CF93DF936C017A018B01C0E0D0E07A
:102C1000CE15DF0581F0D8016D918D01D601ED91C2
:102C2000FC910190F081E02DC6010995892B11F0EE
:102C30002196EECF7E01C701DF91CF911F910F91B9
:102C4000FF90EF90DF90CF900895FC01538D448D5D
:102C5000252F30E0842F90E0821B930B541710F047
:102C6000CF96089501970895FC01918D828D981754
:102C700061F0828DDF01A80FB11D5D968C91928D60
:102C80009F5F9F73928F90E008958FEF9FEF08955D
:102C9000FC01918D828D981731F0828DE80FF11D26
:102CA000858D90E008958FEF9FEF0895FC01918D41
:102CB000228D892F90E0805C9F4F821B91098F733A
:102CC000992708958FEB93E00E94561621E0892BF7
:102CD00009F420E0822F0895FC01848DDF01A80F04
:102CE000B11DA35ABF4F2C91848D90E001968F7334
:102CF0009927848FA689B7892C93A089B1898C9153
:102D0000837080648C93938D848D981306C00288A1
:102D1000F389E02D80818F7D80830895EF92FF926B
:102D20000F931F93CF93DF93EC0181E0888F9B8DEE
:102D30008C8D981305C0E889F989808185FD26C0AE
:102D4000F62E0B8D10E00F5F1F4F0F731127E02E33
:102D50008C8DE8120CC00FB607FCFACFE889F98910
:102D6000808185FFF5CFCE010E946C16F1CF8B8D4F
:102D7000FE01E80FF11DE35AFF4FF0829FB7F89470
:102D80000B8FEA89FB89808180620AC09FB7F89423
:102D9000EE89FF896083E889F98980818370806486
:102DA00080839FBF81E090E0DF91CF911F910F91D1
:102DB000FF90EF900895CF93DF93EC01888D8823E7
:102DC000C9F0EA89FB89808185FD05C0A889B98998
:102DD0008C9186FD0FC00FB607FCF5CF808185FF73
:102DE000F2CFA889B9898C9185FFEDCFCE010E94E1
:102DF0006C16E7CFDF91CF91089580E090E0892BAA
:102E000029F00E94621681110C9400000895089523
:102E1000FC016370658B84819581268137816130E7
:102E200039F0633029F091878087338722870895AE
:102E3000318720879387828708956F927F928F9240
:102E40009F92AF92BF92CF92DF92EF92FF920F9339
:102E50001F93CF93DF93EC014B015A0169013801B5
:102E6000E881F9810284F385E02D0995E881F981F3
:102E70000288F389E02D87019601A501B401CE01F6
:102E80000995A501460D571D41505109E881F98169
:102E90000288F389E02D9601B401CE010995E881FD
:102EA000F9810088F189E02D9301A501B401CE01DB
:102EB0000995C80CD91CB60161507109E881F981E6
:102EC0000088F189E02D9301A501CE010995E881E3
:102ED000F9810688F789E02DCE01DF91CF911F910E
:102EE0000F91FF90EF90DF90CF90BF90AF909F90A9
:102EF0008F907F906F9009948F929F92AF92BF9224
:102F0000CF92DF92EF92FF920F931F93CF93DF93B5
:102F10004C016B015A01E901DC01ED91FC91621752
:102F2000730781F40417150724F48B2D5801042F1F
:102F3000182F0A191B0998012F5F3F4F048CF58D3C
:102F4000E02D12C04017510709F52617370724F462
:102F50008D2D6901C62FD82F9E012C193D092F5F99
:102F60003F4F068CF78DE02D8701A501B601C40106
:102F70000995DF91CF911F910F91FF90EF90DF9016
:102F8000CF90BF90AF909F908F9008950284F3856B
:102F9000E02D0995D401ED91FC910488F589E02D8F
:102FA0009E01A501B601C4010995D401ED91FC91E2
:102FB0000688F789E02DC401DF91CF911F910F9111
:102FC000FF90EF90DF90CF90BF90AF909F908F9049
:102FD0000994EF92FF920F931F93DC011A960D91C3
:102FE0001C911B9718962D913C911997ED91FC918E
:102FF00000A0F1A1E02D7B0140E050E060E070E036
:1030000009951F910F91FF90EF9008954F925F9255
:103010006F927F928F929F92AF92BF92CF92DF92E8
:10302000EF92FF920F931F93CF93DF936C012B01CD
:103030005A0139014801DC01ED91FC910284F385CC
:10304000E02D0995E201640C751CD601ED91FC910F
:10305000C615D7055CF40088F189E02D870194013D
:10306000A501BE01C60109952196EFCF0688F78913
:10307000E02DC601DF91CF911F910F91FF90EF904E
:10308000DF90CF90BF90AF909F908F907F906F9088
:103090005F904F9009948F929F92AF92BF92CF9280
:1030A000DF92EF92FF920F931F93CF93DF93EC0188
:1030B0005B014A016901E881F9810284F385E02D11
:1030C000099595012C0D3D1D21503109E881F981AB
:1030D0000488F589E02D78018401A401B501CE01B1
:1030E0000995E881F9810688F789E02DCE01DF9105
:1030F000CF911F910F91FF90EF90DF90CF90BF90F5
:10310000AF909F908F9009948F929F92AF92BF92B1
:10311000CF92DF92EF92FF920F931F93CF93DF93A3
:10312000EC015B014A0169017801E881F9810284BF
:10313000F385E02D0995C80CD91C860101501109B1
:10314000E881F9810488F589E02D9501A401B50194
:10315000CE010995E881F9810688F789E02DCE0135
:10316000DF91CF911F910F91FF90EF90DF90CF9063
:10317000BF90AF909F908F9009940895EF92FF9227
:103180000F931F93DC01ED91FC9100A0F1A1E02DC4
:1031900009951F910F91FF90EF9008950F931F9342
:1031A000DC01ED91FC91068CF78DE02D09951F91C6
:1031B0000F9108950F931F93DC01ED91FC91048C06
:1031C000F58DE02D09951F910F910895DC01ED918A
:1031D000FC910084F185E02D09942F923F924F924B
:1031E0005F926F927F928F929F92AF92BF92CF9297
:1031F000DF92EF92FF920F931F93CF93DF9300D054
:1032000000D000D0CDB7DEB72C017E836D836A017C
:103210005901C801FC82EB824801841A950A97FE85
:1032200003C091948194910835012D813E81621AE9
:10323000730A77FE03C0719461947108681479046D
:103240005CF43A2D2B2D5C01832F922F3D812E8132
:10325000DE82CD82C32ED22EAD81BE81AA16BB06E0
:103260005CF43C2D2D2D6C01832F922F3D812E81FE
:10327000BE82AD82A32EB22E85012D813E81021B1E
:10328000130B1C012C183D0837FE03C03194219408
:103290003108780117FF03C03FEFE31AF30AF594F2
:1032A000E794C816D9062CF08FEF9FEF9A83898395
:1032B00004C0A1E0B0E0BA83A9832D813E81A216AB
:1032C000B30624F1D201ED91FC910484F585E02D43
:1032D0002B813C816814790424F44D815E81B60110
:1032E00003C0A6016D817E81C2010995E218F30831
:1032F000F7FE06C029813A81C20ED31EE00EF11EF0
:103300008D819E8101969E838D83D7CF26960FB6A1
:10331000F894DEBF0FBECDBFDF91CF911F910F910B
:10332000FF90EF90DF90CF90BF90AF909F908F90E5
:103330007F906F905F904F903F902F90089585ED14
:103340008093BC008091BC0084FDFCCF10924403AC
:103350000895089508950E940A31AF92BF92CF92C6
:10336000EF92FF920F931F93CF93DF93EC01262FE1
:10337000888D998D009709F040C06A3059F41D86F8
:103380001C862C898E859F8538E0239F800D911D9A
:10339000112441C06D3009F4AAC08E898823C1F080
:1033A0003C898C859D8546E0349F800D911D1124BC
:1033B00048855985481759075CF41D861C868E85FB
:1033C0009F8548E0349F800D911D11249F878E8733
:1033D000EA88FB88088919894E855F856C857D851B
:1033E000CC88CE010E94411E2C898C859D8536E0BB
:1033F000239F800D911D112442C06A3079F41D86EF
:103400001C862C89FC013696E4918E859F852E9F23
:10341000800D911D11249F878E8769C06D3009F43E
:1034200066C0FC0134963491631708F460C031968D
:10343000E491E61708F45BC0FC0132966591749143
:10344000422F50E0431B510937E0349F5001359F14
:10345000B00C1124A60EB71EF501329634913196A8
:10346000E491332311F0E1110DC0F5013496E4919C
:103470002C898C859D85E29F800D911D11249D874F
:103480008C8735C0F501359644915E89552311F13D
:103490006C89E32FF0E0E40FF11D47FDFA956E9F74
:1034A000D0016F9FB00D11244C855D854A0F5B1FC5
:1034B000E885F985E417F5076CF41D861C86FC0188
:1034C0003696E4918E859F856E9F800D911D112407
:1034D0009F878E87EA88FB88088919894E855F85D2
:1034E0006C857D85CC88CE010E94411EBECF81E0D7
:1034F00090E0DF91CF911F910F91FF90EF90CF90CF
:10350000BF90AF9008950F931F93CF93DF93EC017B
:1035100088819981009729F02A813B8126173707F6
:1035200088F48B016F5F7F4F0E944430009761F0F9
:10353000998388831B830A832C813D81232B11F47B
:10354000FC01108281E001C080E0DF91CF911F91EA
:103550000F910895EF92FF920F931F93CF93DF93F4
:103560006115710511F480E01CC041155105C1F0D1
:103570007B01EC018C819D818A01080F191FB80124
:10358000CE010E94831A882371F3288139818C81AE
:103590009D81B701820F931F0E9428311D830C83E8
:1035A00081E0DF91CF911F910F91FF90EF900895EF
:1035B0006115710551F0FB0101900020E9F7319789
:1035C000AF01461B570B0C94AA1A80E00895CF93C5
:1035D000DF93EC0188819981009711F00E94BB2F45
:1035E000198218821D821C821B821A82DF91CF9160
:1035F0000895FC01808191810C94BB2FEF92FF9282
:103600000F931F93CF93DF93EC01198218821B82D3
:103610001A821D821C826115710521F18B01FB014B
:1036200001900020E9F731977F01E61AF70AB70108
:103630000E94831A811109C0CE01DF91CF911F91A1
:103640000F91FF90EF900C94E71AFD82EC82B80185
:1036500088819981DF91CF911F910F91FF90EF9019
:103660000C942831DF91CF911F910F91FF90EF9033
:1036700008956115710579F0FB0101900020E9F7CB
:103680003197AF01461B570BDC01ED91FC91028095
:10369000F381E02D099480E090E008951F920F924D
:1036A0000FB60F9211242F933F934F935F936F9315
:1036B0007F938F939F93AF93BF93EF93FF938FEB82
:1036C00093E00E946C16FF91EF91BF91AF919F9193
:1036D0008F917F916F915F914F913F912F910F90BB
:1036E0000FBE0F901F9018951F920F920FB60F925A
:1036F00011242F938F939F93EF93FF93E091CF0328
:10370000F091D0038081E091D503F091D60382FD42
:1037100012C090818091D8038F5F8F732091D9035D
:10372000821751F0E091D803F0E0E154FC4F958FFF
:103730008093D80301C08081FF91EF919F918F9179
:103740002F910F900FBE0F901F9018951F920F9200
:103750000FB60F9211242F933F934F935F936F9364
:103760007F938F939F93AF93BF93EF93FF9380913A
:10377000B900887F803609F49CC068F5883209F466
:103780005BC090F4803109F454C038F4882309F404
:10379000F6C0883009F44DC0F6C0883109F44CC039
:1037A000803209F45DC0EFC0803409F468C048F489
:1037B000803309F455C0883309F0E5C08093420393
:1037C000D8C0803509F44FC0883509F45DC088340D
:1037D00009F0D9C0D6C0883909F4C7C0A8F4883721
:1037E00009F467C038F4883609F463C0803709F4F7
:1037F00060C0C9C0883809F4B8C0803909F45FC016
:10380000803809F0C0C05BC0803B09F486C038F442
:10381000803A09F466C0883A09F47FC0B4C0803C9D
:1038200009F4A7C0883C09F4A4C0883B09F48AC005
:10383000AAC080911F0310C0909141038091400362
:10384000981770F5E091410381E08E0F809341035A
:10385000F0E0E05EFC4F80818093BB0085EC86C089
:10386000809342038EC0E091410381E08E0F8093EC
:1038700041038091BB00F0E0E05EFC4F80839091BB
:103880004103809140036EC0E091410381E08E0FBF
:10389000809341038091BB00F0E0E05EFC4F8083A9
:1038A0008091430381116DC081E080931E0384EAFF
:1038B00061C083E0809344031092D404CFCF809101
:1038C000D404803208F051C0E091D40481E08E0F1E
:1038D0008093D4048091BB00F0E0EC54FB4F8083D4
:1038E000BDCF85EC8093BC00109244038091D4043A
:1038F000803230F4E091D404F0E0EC54FB4F1082BD
:103900006091D40470E0E0919004F091910484EB14
:1039100094E009951092D40436C084E08093440367
:103920001092B3041092B204E0918E04F0918F04CF
:1039300009958091B204811105C081E08093B204A1
:1039400010929204E091B30481E08E0F8093B3044F
:10395000F0E0EE56FB4F80818093BB009091B30462
:103960008091B204981708F479CF85E88093BC0061
:103970000AC085EC8093BC001092440304C01092EE
:1039800042030E949F19FF91EF91BF91AF919F91C8
:103990008F917F916F915F914F913F912F910F90F8
:1039A0000FBE0F901F9018954091B204262F30E063
:1039B000240F311D21323105DCF4209144032430E1
:1039C000C9F4FC0180E090E0861758F43091B2040D
:1039D0002191DC01AE56BB4FA30FB11D2C93019674
:1039E000F3CF8091B204680F6093B20480E0089531
:1039F00081E0089582E00895833081F028F48130D9
:103A000099F08230A1F008958730A9F08830B9F09C
:103A10008430D1F4809180008F7D03C0809180003C
:103A20008F7780938000089584B58F7702C084B526
:103A30008F7D84BD08958091B0008F7703C0809101
:103A4000B0008F7D8093B00008950F931F93CF93A4
:103A5000DF9377FF04C0260F371F60E070E0DC01C2
:103A60001496CD91DC911597FB01E20FF31FCE1751
:103A7000DF071CF49E01261B370B121613060CF0F1
:103A800046C0FA0157FD3796DF01E3E0B595A795EB
:103A9000EA95E1F7AC9FF001AD9FF00DBC9FF00DF2
:103AA00011246E0F7F1FDC015E96ED91FC915F97F4
:103AB000E60FF71F4770552781E090E001C0880F9F
:103AC0004A95EAF7482F0130110539F078F00230B5
:103AD0001105E9F42E0F3F1F13C02E0F3F1FE217F1
:103AE000F307A9F08081842B8193F9CF80952E0F65
:103AF0003F1FE217F30759F0908198239193F9CF74
:103B0000E217F30721F0808184278193F9CFDF91B9
:103B1000CF911F910F910895EF92FF920F931F93F2
:103B2000CF93DF93EC0177FDA5C0EC80FD806E158F
:103B30007F050CF09FC057FF04C0240F351F40E0E5
:103B400050E08E819F81FA01E20FF31F8E179F07CD
:103B50001CF49C01241B350B121613060CF08AC0B2
:103B6000922F842F8695869586958E9DD0018F9D68
:103B7000B00D11246A0F7B1FAE8DBF8DA60FB71F2E
:103B80004770B1F188E0841B482F682F70E0FB017B
:103B9000E554FA4FE491281798F4621B71092FEF4E
:103BA00030E002C0359527956A95E2F7E2230130AF
:103BB000110549F078F00230110509F05BC00EC024
:103BC0000130110519F48C91E82B0AC00130110560
:103BD00008F049C0E0958C91E82302C08C91E82759
:103BE000EC93941708F446C02C813D81A20FB31FBB
:103BF000E92FE41BE830F8F00230110561F48E2F54
:103C00009C9190959C932C813D81A20FB31F88506D
:103C10008830B0F70FC081E00115110509F480E08C
:103C200081959E2F8C932C813D81A20FB31F9850BC
:103C30009830C0F7E770EE23E9F0F0E0ED54FA4F6A
:103C4000E4910130110539F048F00230110591F48A
:103C50008C91E82706C08C91E82B03C0E0958C91ED
:103C6000E823EC9307C00230110509F4B7CFAE0D7D
:103C7000BF1DBECFDF91CF911F910F91FF90EF90AD
:103C800008952F923F924F925F926F927F928F9200
:103C90009F92AF92BF92CF92DF92EF92FF920F93DB
:103CA0001F93CF93DF93CDB7DEB76B970FB6F89422
:103CB000DEBF0FBECDBF9B8F8A8F5B011A01D22E54
:103CC0001F830E833701C982DC0158962D913C91E8
:103CD00059972115310509F0E6C018968D919C91F0
:103CE0001997681779070CF0CDC11A968D919C91A0
:103CF0001B97481759070CF0C5C18C2C912CFB0160
:103D000026E0C29EE00DF11D1124FB87EA871E16F6
:103D10001F060CF0B7C1A40183E0440F551F8A951C
:103D2000E1F75D874C87CA01820D931D18161906AD
:103D30000CF0A8C157968C91811104C05FEA5D1503
:103D400008F4D394AA8DBB8DED91FC911197028458
:103D5000F385E02DCD010995B5E0DB9EC00111246E
:103D6000F5013596FF87EE87BB82AA8225019C016B
:103D70002A193B09398B288BA101485F5F4F5B8B68
:103D80004A8BE889F989E40DF51DED54FF4F5491F4
:103D9000588761013D822C82888580FF13C0AA8DDF
:103DA000BB8DED91FC91B981B13031F40484F5857E
:103DB000E02D2E813F8116C00684F785E02DEE8030
:103DC000FF801AC0EE81FF81E615F705F1F0AA8D9C
:103DD000BB8DED91FC91B981B13051F40484F5852E
:103DE000E02D9301A601B2018A8D9B8D09950DC02E
:103DF0000684F785E02D7301840194014C815D8177
:103E00006A817B818A8D9B8D0995E885E695E88797
:103E1000FFEFCF1ADF0A2C813D81280D391D3D832C
:103E20002C834A895B89C416D50609F0B5CF5FEFAC
:103E3000451A550A8A819B81880D991D9B838A8327
:103E4000AE85BF854A165B0609F09BCFEE81FF81E8
:103E5000E615F70509F4F4C0EA8DFB8DA081B18168
:103E6000F981F13079F4B5016B5F7F4F5096ED9198
:103E7000FC915197830128E030E0A1018A8D9B8D50
:103E80000995DEC06A857B85681979091E96ED91D2
:103E9000FC911F9773010C851D859401A1018A8DEA
:103EA0009B8D0995CDC0F9013496E491DE1AF90194
:103EB000329685919491B7E0DB9E800D911D11247F
:103EC000F901259134913B8B2A8BFC01259134918A
:103ED0002901FC013296C490319634913E87329686
:103EE00014913196D4904981423058F0612E012EC0
:103EF000000C77088D2D0D2C000C990B9987888765
:103F000004C019861886612C712CAA8DBB8DED9189
:103F1000FC9111970284F385E02DCD010995B981BB
:103F20008B2E912C689CC001699C900D789C900D03
:103F30001124FC01EA0DFB1DFD87EC871A82712C10
:103F4000612CE12F110FFF0B95012E0F3F1F3B87B7
:103F50002A87AC0CB11CA5014E0F5F1F5F8B4E8BE7
:103F6000C1018D0D911DD7FC9A95998F888F9E85E3
:103F7000691608F065C0862D90E048855985480F80
:103F8000591F489D9001499D300D589D300D1124B9
:103F9000D101A20FB31FB98BA88BEC85FD85FD83E2
:103FA000EC83AA84BB84DA80FA85DF1A288D398DE8
:103FB000280F391F3D8B2C8B8D2D8A0D4E895F89E3
:103FC000A416B506C1F1877041F4C2010196EA89D1
:103FD000FB89E40DF51D74902C0177FE21C0AA8D9C
:103FE000BB8DED91FC91B981B13061F40484F5850C
:103FF000E02D2E813F814C895D89B5018A8D9B8D95
:1040000009950EC00684F785E02DEE80FF808401BF
:104010009401488959896C817D818A8D9B8D099590
:10402000770CEFEFAE1ABE0A2C813D81280D391DA9
:104030003D832C83C1CF3A813C0D3A83639497CF63
:10404000AA8DBB8DED91FC9111970688F789E02D23
:10405000CD016B960FB6F894DEBF0FBECDBFDF91DA
:10406000CF911F910F91FF90EF90DF90CF90BF9075
:10407000AF909F908F907F906F905F904F903F9008
:104080002F9009946B960FB6F894DEBF0FBECDBF8C
:10409000DF91CF911F910F91FF90EF90DF90CF9024
:1040A000BF90AF909F908F907F906F905F904F9058
:1040B0003F902F900895CF93DF93282F30E0F901A0
:1040C000E156FF4F8491F901E751FA4FD491F9017C
:1040D000E95FF94FC491CC2391F081110E94FC1C3F
:1040E000EC2FF0E0EE0FFF1FEB56FF4FA591B491C0
:1040F000EC91ED2381E090E021F480E002C080E0CB
:1041000090E0DF91CF9108951F93CF93DF93282FF5
:1041100030E0F901E156FF4F8491F901E751FA4F80
:10412000D491F901E95FF94FC491CC23C1F0162F66
:1041300081110E94FC1CEC2FF0E0EE0FFF1FE350FA
:10414000FA4FA591B4919FB7F894111104C08C91C6
:10415000D095D82302C0EC91DE2BDC939FBFDF917A
:10416000CF911F910895CF93DF9390E0FC01E75129
:10417000FA4F2491FC01E95FF94F8491882361F1A2
:1041800090E0880F991FFC01ED53FA4FC591D4912F
:10419000FC01E350FA4FA591B491611109C09FB79A
:1041A000F8948881209582238883EC912E230BC07C
:1041B000623061F49FB7F8948881322F3095832361
:1041C0008883EC912E2B2C939FBF06C08FB7F89459
:1041D000E8812E2B28838FBFDF91CF9108958F9296
:1041E0009F92AF92BF92CF92DF92EF92FF926B01BC
:1041F0007C010E945B234B015C01C114D104E104EA
:10420000F104F1F00E945B23DC01CB0188199909CC
:10421000AA09BB09883E9340A105B10570F321E0CE
:10422000C21AD108E108F10888EE880E83E0981ED2
:10423000A11CB11CC114D104E104F10419F7DDCFB4
:10424000FF90EF90DF90CF90BF90AF909F908F90B6
:1042500008950F931F93CF9380919F039091A00394
:10426000892B19F52091870330918803C90107969E
:1042700097FD079603E0959587950A95E1F72091BC
:10428000850330918603AC01429FC001439F900D8E
:10429000529F900D11240E94232F9093A00380938E
:1042A0009F03892B11F480E002C20E94E613209143
:1042B0008703309188038091850390918603213292
:1042C0003105A4F0B9016054710977FF02C06F5F36
:1042D0007F4F759567958255910997FD019600E48A
:1042E00010E022E530E04BEF57E013C0B901605217
:1042F000710977FF02C06F5F7F4F75956795835790
:10430000910997FD019600E210E023E730E04BE1D0
:1043100056E0959587950E94061482E08093A2034B
:1043200080919D0390919E03009731F02CE32093A0
:10433000A1030E944B09BEC061E08091A6030E94C8
:10434000B32061E08091A7030E94B3208091A6036F
:10435000082E000C990BFC01E95FF94FE491F0E0A5
:10436000EE0FFF1FE350FA4F259134913093AE03C7
:104370002093AD03FC01E751FA4FE491E093B303BE
:104380008091A703082E000C990BFC01E95FF94FFF
:10439000E491F0E0EE0FFF1FE350FA4FA591B491C6
:1043A000B093B003A093AF03FC01E751FA4FE4913F
:1043B000E093B4038C91E82BEC9380919B03909154
:1043C0009C03892B09F434C0CFB7F8948091D504AD
:1043D000811127C0E1E1F6E08491E3EFF5E09491EB
:1043E000E82FF0E0EE0FFF1FED53FA4FA591B491C7
:1043F000EC91E92321F461E08AE00E94842061E0ED
:104400008AE00E94B3208CB580618CBD8CB580643D
:104410008CBD61E08DE00E94B32061E08BE00E94E2
:10442000B3208091D5048F5F8093D504CFBF42C065
:1044300061E08091A4030E94B32061E08091A50314
:104440000E94B3208091A403082E000C990BFC015C
:10445000E95FF94FE491F0E0EE0FFF1FE350FA4FF0
:10446000259134913093AA032093A903FC01E751CD
:10447000FA4FE491E093B1038091A503082E000C5C
:10448000990BFC01E95FF94FE491F0E0EE0FFF1F9B
:10449000E350FA4FA591B491B093AC03A093AB0352
:1044A000FC01E751FA4FE491E093B2038C91E0955F
:1044B000E823EC938091A80387FD1EC061E00E9471
:1044C000B32061E08091A8030E94842061E070E045
:1044D00080E090E00E94EF2060E08091A8030E94BD
:1044E00084206AE070E080E090E00E94EF2061E0CC
:1044F0008091A8030E94842080919D0390919E0347
:10450000892BD1F02091B7033091B8034091B903C2
:104510005091BA0360E074E284EF90E00E94FB2EB9
:10452000DA01C9014097A109B109B695A7959795F8
:1045300087958093B80016C080919B0390919C034F
:10454000892B31F08091B5039091B6030E94E80960
:10455000E091AF03F091B00390818091B403809516
:104560008923808364E085EE95E00E94BF1060910E
:104570008703615081E893E00E94850964E081EE41
:1045800095E00E94BF108091A203813011F064E198
:1045900001C060E181E893E00E94850964E08DED4F
:1045A00095E00E94BF10809185039091860380382A
:1045B0009105E9F4809187039091880380329105F9
:1045C00031F464E089ED95E00E94BF1029C0803489
:1045D000910531F563E086ED95E00E94BF10809172
:1045E000A203813011F06FEC17C06FE915C080365F
:1045F0009105B1F48091870390918803409781F4ED
:1046000063E083ED95E00E94BF108091A2038130AA
:1046100011F06FEA01C060E181E893E00E94850932
:1046200069ED81E893E00E9485098091A2038130C1
:1046300011F061EF01C062E281E893E00E94850918
:1046400066E08DEC95E00E94BF1080919D039091F3
:104650009E03892BD1F02091BB033091BC03409184
:10466000BD035091BE0360E074E284EF90E00E94CD
:10467000FB2EDA01C9014097A109B109B695A795AA
:10468000979587958093B80011C0E091AF03F091A2
:10469000B00390818091B403892B808380919B0328
:1046A00090919C03892B11F00E947D0981E0CF91AC
:1046B0001F910F9108953FB7F8948091DB0490917A
:1046C000DC04A091DD04B091DE0426B5A89B05C0F2
:1046D0002F3F19F00196A11DB11D3FBFBA2FA92F81
:1046E000982F8827820F911DA11DB11DBC01CD01FE
:1046F00042E0660F771F881F991F4A95D1F70895EA
:104700001F920F920FB60F9211242F933F938F9306
:104710009F93AF93BF938091D6049091D704A091BB
:10472000D804B091D9043091DA0423E0230F2D3757
:1047300020F40196A11DB11D05C026E8230F0296A5
:10474000A11DB11D2093DA048093D6049093D70461
:10475000A093D804B093D9048091DB049091DC0439
:10476000A091DD04B091DE040196A11DB11D8093DE
:10477000DB049093DC04A093DD04B093DE04BF91CE
:10478000AF919F918F913F912F910F900FBE0F90FE
:104790001F90189585E793E00E94F91A8BE793E044
:1047A0000E94F91A86E391E090938203809381033B
:1047B00080919F039091A003009711F00C94BB2F60
:1047C0000895CF93DF93CDB7DEB7C455D1090FB6A7
:1047D000F894DEBF0FBECDBF789484B5826084BDEF
:1047E00084B5816084BD85B5826085BD85B58160F5
:1047F00085BD80916E00816080936E001092810073
:10480000809181008260809381008091810081602D
:1048100080938100809180008160809380008091EE
:10482000B10084608093B1008091B000816080937A
:10483000B00080917A00846080937A0080917A0041
:10484000826080937A0080917A00816080937A0000
:1048500080917A00806880937A001092C10089E686
:1048600093E00E944B090E942921E091CF03F0912F
:10487000D00322E02083E091CB03F091CC0310829F
:10488000E091CD03F091CE038FEC80831092D7039B
:10489000E091D303F091D40396E09083E091D103AB
:1048A000F091D203808180618083E091D103F09107
:1048B000D203808188608083E091D103F091D2039C
:1048C000808180688083E091D103F091D203808160
:1048D0008F7D8083E0916A04F0916B04A089B18997
:1048E0002C93A485B5851C92A685B78580E18C9311
:1048F000108EA489B5899C93A289B3898C9180611B
:104900008C93A289B3898C9188608C93A289B38996
:104910008C9180688C930288F389E02D80818F7D53
:1049200080830E942921811117C006E710E0F80159
:104930006491611107C069E572E08FEB93E00E941A
:10494000391B09C08FEB93E00E948E160F5F1F4F3B
:10495000892B69F7F0CFFFCF0E94741160ED77E0EB
:1049600080E090E00E94EF200E94E6130E94741104
:1049700060ED77E080E090E00E94EF200E941A1046
:104980004091790350917A03609175037091760399
:104990008CE594E00E947E060E941A100E94550E3B
:1049A00083E08093000384E0809301031092060368
:1049B00010920703109208031092090310920A0341
:1049C00062E083E00E94B32062E084E00E94B320B2
:1049D00083E00E945B20909303038093020384E0B2
:1049E0000E945B2090930503809304038EE08093E4
:1049F000F5028FE08093F6021092FB021092FC0207
:104A00001092FD021092FE021092FF0262E08EE010
:104A10000E94B32062E08FE00E94B3208EE00E94EB
:104A20005B209093F8028093F7028FE00E945B2056
:104A30009093FA028093F90262E086E00E94B3202C
:104A400062E087E00E94B32062E088E00E94B32029
:104A500080910A0190910B01A0910C01B0910D0180
:104A600063968CAF9DAFAEAFBFAF63976624639480
:104A7000712CA1E4B0E0AC0FBD1F14966596BFAFDA
:104A8000AEAF659744E0242E312C53E0452E512CD7
:104A900080911603811109C06BE572E08BE093E011
:104AA0000E94FE1A81E08093160380E093E00E944A
:104AB0002C0E982E85EF92E00E942C0E882E639685
:104AC0008CAD9DADAEADBFAD639789A39AA3ABA3EB
:104AD000BCA36CE572E0CE0101960E94FE1A61E66D
:104AE00072E0CE0107960E94FE1A66E672E0CE01E1
:104AF0000D960E94FE1A6CE672E0CE0143960E946B
:104B0000FE1A8091F3029091F402039711F492E05F
:104B100001C090E080E08E010F5D1F4F20E0C22EAB
:104B200021E0D22EE92EF82E5E0195E2A90EB11CED
:104B30002C960FAF2C972D961FAF2D97D8018C91E7
:104B40000E5F1F4F0E945B20F6012081318182178A
:104B5000930719F1F6E0FE9DB001FF9D700D112441
:104B6000232B79F421E030E02C0F3D1F620F731FDF
:104B700080E00E94870FE1E0F0E0D601ED93FC9326
:104B80000CC021E030E02C0F3D1F620F731F81E04D
:104B90000E94870FD6011D921C92B2E0CB0ED11C51
:104BA000EFEFEE1AFE0AA016B10641F6CE014396CB
:104BB0000E94F91ACE010D960E94F91ACE010796AD
:104BC0000E94F91ACE0101960E94F91A882069F014
:104BD000682D880C770B880B990B0E948F2CAB01EA
:104BE000BC0180E090E00E94ED0E992069F0692DF3
:104BF000990C770B880B990B0E948F2CAB01BC0191
:104C000081E090E00E94ED0E8CE594E00E941A078E
:104C10008C01181619069CF40150110980F08CE5DE
:104C200094E00E94E60689831A8241E050E0BE01CA
:104C30006F5F7F4F8BE093E00E94AA1AEDCF8091C7
:104C40006804909169048230910559F410926904C6
:104C50001092680480910F0390911003892B51F5F5
:104C60004DC0019709F05FC580916A0490916B0473
:104C7000DC01ED91FC910084F185E02D0995892BF3
:104C800029F380916A0490916B04DC01ED91FC9111
:104C90000484F585E02D0995803CC1F680916A0475
:104CA00090916B04DC01ED91FC910284F385E02D81
:104CB0000995CCCF00910B0310910C0360917B03FD
:104CC00070917C03C8010E943D310097B9F0801BB0
:104CD000910B019699F00E941A104091790350911E
:104CE0007A0360917503709176038CE594E00E94DD
:104CF0007E060E941A100E94550E25C41A8219823F
:104D00001E821D8218861F821C821B821C861B86A7
:104D10001E861D86188A1F86CE0101960E94790A7A
:104D20001A86198682E090E098878F83E0910B03C2
:104D3000F0910C032B96FFAFEEAF2B9780910F03F2
:104D400090911003E80FF91F2F96FFAFEEAF2F974A
:104D50002B962EAD3FAD2B972F968EAD9FAD2F97F7
:104D60002817390709F4C1C3D901DD902B96BFAFCD
:104D7000AEAF2B972F8538898B859C856D857E8579
:104D8000121613067CF49B012F5F3F4F3E872D8741
:104D9000FC01E60FF71FD0828F8598890197988BC9
:104DA0008F871AC06F5E7F4F0E9444309C878B872D
:104DB000009781F02D853E85A9014F5F5F4F5E878B
:104DC0004D87FC01E20FF31FD082E0E1F0E0F88BA9
:104DD000EF8702C058864F82E985FA85E730F105F2
:104DE00008F0B6CFEC5CFF4F0C941D2F00E010E0F4
:104DF00080C0FFE2DF12ACCF7A866986A9CFD110DE
:104E0000A7CF6B857C85CE0101960E94960A1886F5
:104E10001F82CE0101960E94790A22E030E03AC357
:104E20003CE2D31295CF5A86498666C2DD20B1F1A5
:104E30008EE090E00E94232F8C01E2E0F0E0DC01A4
:104E40001196FC93EE938D2DDD0C990B15969C938A
:104E50008E93149713961C921E9212976D817E81E9
:104E60006F5F7F4F660F771F8B819C810E9444305C
:104E7000009719F458864F8213C09C838B832D8131
:104E80003E81A901440F551FFC01E40FF51F11835A
:104E900000832F5F3F4F3E832D8302C03A862986D1
:104EA0004D815E819A0120953095C90183709927C3
:104EB000009711F484E090E0840F951F2D853E85C6
:104EC0002817390709F044CFCE0101960E94790ACC
:104ED00025E030E0DFC2B801CE0101960E94450C0A
:104EE000DC012D913C9111972230310541F00F5F8B
:104EF0001F4F8D819E81081719076CF329CF1496D7
:104F0000ED90FC901597B6E6EB16F10409F45FC03E
:104F10005CF4F2E6EF16F10409F435C224E6E21679
:104F2000F10409F49EC014CF33E7E316F10409F449
:104F3000E8C184E7E816F10409F411C199E6E9161D
:104F4000F10409F005CF8D859E85049709F000CF07
:104F5000EB85FC85808191812281338139A32AA34D
:104F60009BA38CA389A09AA0ABA0BCA08D819E819D
:104F7000081719070CF5B801CE0101960E94450CDF
:104F80007C01009729F00E94B20CC7010E94BB2F40
:104F90008EE090E00E94232FFC0111821082A9E68E
:104FA000B0E0B583A48324E030E03383228386829B
:104FB0009782A086B18692C00817190709F09AC196
:104FC000B501A401CE0101960E94E20D95C1ED84C8
:104FD000FE8434E0E316F10409F0BACEEB85FC85DB
:104FE00080819181A281B38189A39AA3ABA3BCA341
:104FF0002C968FAD2C972D969FAD2D970E94450A2C
:105000004B015C018D819E8108171907ECF4B801F2
:10501000CE0101960E94450C7C01009729F00E9468
:10502000B20CC7010E94BB2F8EE090E00E94232F9C
:10503000FC011182108286E690E095838483A4E0CF
:10504000B0E0B383A28346C00817190739F4B5014D
:10505000A401CE0101960E94980D4EC1F886EF8200
:105060004BC18D859E85089709F072CEEB85FC8536
:1050700088E0DE01919601900D928A95E1F72C96D9
:105080008FAD2C972D969FAD2D970E94450A4B0111
:105090005C018D819E81081719074CF5B801CE017E
:1050A00001960E94450C7C01009729F00E94B20CE9
:1050B000C7010E94BB2F8EE090E00E94232FFC01CD
:1050C0001182108224E030E03383228386E690E070
:1050D0009583848386829782A086B186000F111FF4
:1050E000AB81BC81A00FB11FED93FC9305C10817E4
:1050F000190709F0FFC08EE090E00E94232F7C0189
:10510000DC0111961C921E92E4E0F0E01396FC93F1
:10511000EE93129726E630E015963C932E93149763
:1051200016968D929D92AD92BC921997B8016F5FC1
:105130007F4F660F771F8B819C810E9444300097C0
:1051400009F4C4C09C838B832D813E81A901440F47
:10515000551FFC01E40FF51FF182E082C6C0AD844B
:10516000BE84B8E0AB16B10409F0F2CDEB85FC8546
:1051700088E0DE01AF5BBF4F01900D928A95E1F7A9
:10518000CE018F5B9F4F0E945F0A25966CAF7DAF6B
:105190008EAF9FAF259765968EAD9FAD65970E94A8
:1051A0005F0A29966CAF7DAF8EAF9FAF299788E0DD
:1051B000FE01EF5BFF4FDE01D99601900D928A95BB
:1051C000E1F78D819E81081719070CF040C0B801E6
:1051D000CE0101960E94450C7C01009729F00E94A7
:1051E000B20CC7010E94BB2F88E0FE01F996DE01D8
:1051F000919601900D928A95E1F78EE090E00E94E1
:10520000232F28E0FE01B196DE01D19601900D9288
:105210002A95E1F7FC011182108224E730E0358302
:105220002483A8E0B0E0B383A28328E0FE01F196D6
:10523000DC01169601900D922A95E1F7000F111FDF
:10524000EB81FC81E00FF11F9183808355C008172B
:10525000190709F04FC088E0FE01F996DE01999622
:1052600001900D928A95E1F788E0FE01B996DE0182
:10527000919601900D928A95E1F78EE090E00E9460
:10528000232F6C0188E0FE01B196DE015996019052
:105290000D928A95E1F7F60111821082F582E4827F
:1052A000B382A28288E0FE017996D601169601901B
:1052B0000D928A95E1F7B8016F5F7F4F660F771FF8
:1052C0008B819C810E944430009719F458864F824C
:1052D00013C09C838B832D813E81A901440F551FF0
:1052E000FC01E40FF51FD182C0822F5F3F4F3E8348
:1052F0002D8302C038862F82CE0101960E94790A42
:1053000027CDD11025CDCB84DC848D819E810817DB
:1053100019073CF5B801CE0101960E94450C7C01AD
:10532000009729F00E94B20CC7010E94BB2F8EE0AB
:1053300090E00E94232F7C01B6010E942D0DD70121
:105340008D919C918330910519F498878F8314C0B7
:10535000000F111FEB81FC81E00FF11FF182E08251
:105360000BC00817190731F4B601CE0101960E944F
:105370005A0D02C038862F82CE0101960E94790A0A
:10538000E6E0F0E0A8C0CD84DE84F5E0CF16D104DD
:105390000CF4DECCEB84FC84F70180819181A28146
:1053A000B38189A39AA3ABA3BCA32C968FAD2C97F2
:1053B0002D969FAD2D970E945F0A4B015C01CB019A
:1053C0000496C816D90609F0C3CCF4E0EF0EF11C20
:1053D0008D819E81081719073CF5B801CE01019611
:1053E0000E94450C6C01009729F00E94B20CC60186
:1053F0000E94BB2F8EE090E00E94232F6C01A4013D
:10540000B7010E94C50CD6018D919C91039719F4A8
:1054100058864F8239C0000F111FEB81FC81E00FCD
:10542000F11FD182C08230C00817190759F58EE0EC
:1054300090E00E94232F8C01A401B7010E94C50CAB
:10544000F80180819181039719F36D817E816F5FEF
:105450007F4F660F771F8B819C810E94443000979D
:10546000B9F29C838B832D813E81A901440F551F86
:10547000FC01E40FF51F118300832F5F3F4F3E8334
:105480002D8302C038862F82CE0101960E94790AB0
:1054900026E030E03A8729875BCC0D811E810150E0
:1054A000110917FD55CCB801CE0101960E94450C9B
:1054B000DC012D913C911197232B89F712968D9148
:1054C0009C911397919581959109837099270097E5
:1054D00029F4E5E0F0E0FA87E9873ACC2D853E85AE
:1054E0008217930709F034CCEFCC20E030E04AEB90
:1054F0005EE062E772E0CE0101960E94C20A81116D
:105500001DC020E030E045EB57E067E772E0CE01D8
:1055100001960E94C20A811111C020E030E04EEADB
:1055200057E06FE772E0CE0101960E94C20A811136
:1055300005C0CE0101960E94891405C0CE010196D6
:105540000E9489149AC08091F3029091F4028130F4
:10555000910571F1A0F08230910509F464C00397C0
:1055600009F08BC082E090E090938E0380938D03CE
:105570001092900310928F038AEB92E060C00E9419
:10558000E61310928E0310928D03109290031092E6
:105590008F0383E892E00E94AC1210928E03109267
:1055A0008D037092900360928F0381E992E061C055
:1055B00010928E0310928D031092900310928F031D
:1055C0008CE992E00E94AC1260910603709107038F
:1055D000809108039091090343E00E94BF1269E59E
:1055E00072E081E893E00E94391B0E9474118AE006
:1055F00090E090938E0380938D039093900380931B
:105600008F0363EA72E081E893E00E94391B6091A6
:10561000FB027091FC028091FD029091FE0243E03A
:105620000E94BF1228C087E090E090938E03809381
:105630008D031092900310928F038AEA92E00E94E9
:10564000AC1210928E0310928D03709290036092B0
:105650008F0381EB92E00E94AC128CE090E090937B
:105660008E0380938D037092900360928F0385EB7D
:1056700092E00E94AC120E9474112FB7F8948091AE
:10568000D6049091D704A091D804B091D9042FBF2B
:105690008093110390931203A0931303B093140308
:1056A000109215036BE572E0CE0101960E94FE1A7E
:1056B00080910B0390910C030097C9F069817A8166
:1056C0006115710591F040910D0350910E032D81EC
:1056D0003E814217530748F00E9428318D819E81F8
:1056E0009093100380930F0318C00E94BB2F8981F1
:1056F0009A8190930C0380930B038B819C819093F0
:105700000E0380930D038D819E81909310038093EF
:105710000F031A8219821C821B821E821D82CE01F7
:1057200001960E94F91A8091110390911203A091A1
:105730001303B0911403892B8A2B8B2B09F44FC0D0
:105740002FB7F8948091D6049091D704A091D804F3
:10575000B091D9042FBF4091110350911203609171
:10576000130370911403841B950BA60BB70B893898
:10577000F3E19F07A105B10570F01092F4021092B9
:10578000F30210921103109212031092130310925D
:1057900014031092150320911503211120C0853C9C
:1057A0009940A105B105D8F066EC72E0CE010196F2
:1057B0000E94920C60ED72E0CE0101960E945A0D9B
:1057C0000E941A10CE0101960E94C3140E941A1062
:1057D00081E080931503CE0101960E9489140E94F6
:1057E000FD1656C9CF93DF93EFEBF3E013821282DD
:1057F00048EE53E060E070E044835583668377832E
:1058000082E191E09183808385EC90E095878487A5
:1058100084EC90E09787868780EC90E0918B808B7A
:1058200081EC90E0938B828B82EC90E0958B848B63
:1058300086EC90E0978B868B118E128E138E148ED1
:10584000C9E6D3E01B821A824C835D836E837F831B
:1058500084E291E099838883ACE5B4E013961C92CE
:105860001E92129714964D935D936D937C931797A8
:1058700082E691E011969C938E931F96FC93EE9393
:105880001E971D961C921E921C97E1E8F3E013826E
:10589000128220E830E03583248380E290E0978311
:1058A00086833187208793878287158A1586148699
:1058B0001786168681E0848B2FEF3FEF338B228B88
:1058C000318B208B868B178A118E108E86E391E0A8
:1058D00091838083138E128ED58FC48F178E168E70
:1058E0008FEF83A384A385A386A384E087A380E5A9
:1058F00084AB15AA6BED72E08BE793E00E94FE1A71
:1059000063EE72E085E793E0DF91CF910C94FE1A8D
:105910000E94CA2C08F481E00895E89409C097FB1E
:105920003EF490958095709561957F4F8F4F9F4F76
:105930009923A9F0F92F96E9BB279395F6958795BA
:1059400077956795B795F111F8CFFAF4BB0F11F47D
:1059500060FF1BC06F5F7F4F8F4F9F4F16C0882324
:1059600011F096E911C0772321F09EE8872F762F5A
:1059700005C0662371F096E8862F70E060E02AF09B
:105980009A95660F771F881FDAF7880F9695879587
:1059900097F90895990F0008550FAA0BE0E8FEEF5C
:1059A00016161706E807F907C0F012161306E407E3
:1059B000F50798F0621B730B840B950B39F40A26DC
:1059C00061F0232B242B252B21F408950A2609F4BA
:1059D000A140A6958FEF811D811D08950E94012D84
:1059E0000C94722D0E94642D38F00E946B2D20F0D3
:1059F000952311F00C945B2D0C94612D11240C94C3
:105A0000A62D0E94832D70F3959FC1F3950F50E052
:105A1000551F629FF001729FBB27F00DB11D639F60
:105A2000AA27F00DB11DAA1F649F6627B00DA11D06
:105A3000661F829F2227B00DA11D621F739FB00DAC
:105A4000A11D621F839FA00D611D221F749F33271C
:105A5000A00D611D231F849F600D211D822F762FB5
:105A60006A2F11249F5750409AF0F1F088234AF092
:105A7000EE0FFF1FBB1F661F771F881F91505040FE
:105A8000A9F79E3F510580F00C945B2D0C94A62D38
:105A90005F3FE4F3983ED4F3869577956795B79585
:105AA000F795E7959F5FC1F7FE2B880F911D96959F
:105AB000879597F9089597F99F6780E870E060E00F
:105AC00008959FEF80EC089500240A941616170697
:105AD00018060906089500240A94121613061406DF
